{
  "_format": "hh-sol-artifact-1",
  "contractName": "donation",
  "sourceName": "contracts/donation.sol",
  "abi": [
    {
      "inputs": [],
      "stateMutability": "nonpayable",
      "type": "constructor"
    },
    {
      "inputs": [
        {
          "internalType": "string",
          "name": "name",
          "type": "string"
        }
      ],
      "name": "BuyChai",
      "outputs": [],
      "stateMutability": "payable",
      "type": "function"
    },
    {
      "inputs": [],
      "name": "getMemos",
      "outputs": [
        {
          "components": [
            {
              "internalType": "string",
              "name": "name",
              "type": "string"
            },
            {
              "internalType": "uint256",
              "name": "amount",
              "type": "uint256"
            },
            {
              "internalType": "uint256",
              "name": "timestamp",
              "type": "uint256"
            },
            {
              "internalType": "address",
              "name": "from",
              "type": "address"
            }
          ],
          "internalType": "struct donation.Memo[]",
          "name": "",
          "type": "tuple[]"
        }
      ],
      "stateMutability": "view",
      "type": "function"
    }
  ],
  "bytecode": "0x608060405234801561001057600080fd5b5033600160006101000a81548173ffffffffffffffffffffffffffffffffffffffff021916908373ffffffffffffffffffffffffffffffffffffffff160217905550610ace806100616000396000f3fe6080604052600436106100295760003560e01c806338d9ec8e1461002e578063865c51721461004a575b600080fd5b610048600480360381019061004391906104ae565b610075565b005b34801561005657600080fd5b5061005f6101f9565b60405161006c91906106f5565b60405180910390f35b600034116100b8576040517f08c379a00000000000000000000000000000000000000000000000000000000081526004016100af9061079a565b60405180910390fd5b600160009054906101000a900473ffffffffffffffffffffffffffffffffffffffff1673ffffffffffffffffffffffffffffffffffffffff166108fc349081150290604051600060405180830381858888f19350505050158015610120573d6000803e3d6000fd5b50600060405180608001604052808381526020013481526020014281526020013373ffffffffffffffffffffffffffffffffffffffff168152509080600181540180825580915050600190039060005260206000209060040201600090919091909150600082015181600001908161019891906109c6565b50602082015181600101556040820151816002015560608201518160030160006101000a81548173ffffffffffffffffffffffffffffffffffffffff021916908373ffffffffffffffffffffffffffffffffffffffff160217905550505050565b60606000805480602002602001604051908101604052809291908181526020016000905b8282101561034b5783829060005260206000209060040201604051806080016040529081600082018054610250906107e9565b80601f016020809104026020016040519081016040528092919081815260200182805461027c906107e9565b80156102c95780601f1061029e576101008083540402835291602001916102c9565b820191906000526020600020905b8154815290600101906020018083116102ac57829003601f168201915b5050505050815260200160018201548152602001600282015481526020016003820160009054906101000a900473ffffffffffffffffffffffffffffffffffffffff1673ffffffffffffffffffffffffffffffffffffffff1673ffffffffffffffffffffffffffffffffffffffff16815250508152602001906001019061021d565b50505050905090565b6000604051905090565b600080fd5b600080fd5b600080fd5b600080fd5b6000601f19601f8301169050919050565b7f4e487b7100000000000000000000000000000000000000000000000000000000600052604160045260246000fd5b6103bb82610372565b810181811067ffffffffffffffff821117156103da576103d9610383565b5b80604052505050565b60006103ed610354565b90506103f982826103b2565b919050565b600067ffffffffffffffff82111561041957610418610383565b5b61042282610372565b9050602081019050919050565b82818337600083830152505050565b600061045161044c846103fe565b6103e3565b90508281526020810184848401111561046d5761046c61036d565b5b61047884828561042f565b509392505050565b600082601f83011261049557610494610368565b5b81356104a584826020860161043e565b91505092915050565b6000602082840312156104c4576104c361035e565b5b600082013567ffffffffffffffff8111156104e2576104e1610363565b5b6104ee84828501610480565b91505092915050565b600081519050919050565b600082825260208201905092915050565b6000819050602082019050919050565b600081519050919050565b600082825260208201905092915050565b60005b8381101561055d578082015181840152602081019050610542565b60008484015250505050565b600061057482610523565b61057e818561052e565b935061058e81856020860161053f565b61059781610372565b840191505092915050565b6000819050919050565b6105b5816105a2565b82525050565b600073ffffffffffffffffffffffffffffffffffffffff82169050919050565b60006105e6826105bb565b9050919050565b6105f6816105db565b82525050565b600060808301600083015184820360008601526106198282610569565b915050602083015161062e60208601826105ac565b50604083015161064160408601826105ac565b50606083015161065460608601826105ed565b508091505092915050565b600061066b83836105fc565b905092915050565b6000602082019050919050565b600061068b826104f7565b6106958185610502565b9350836020820285016106a785610513565b8060005b858110156106e357848403895281516106c4858261065f565b94506106cf83610673565b925060208a019950506001810190506106ab565b50829750879550505050505092915050565b6000602082019050818103600083015261070f8184610680565b905092915050565b600082825260208201905092915050565b7f506c656173652070617920736f6d6520457468657220746f20636f6e74696e7560008201527f6500000000000000000000000000000000000000000000000000000000000000602082015250565b6000610784602183610717565b915061078f82610728565b604082019050919050565b600060208201905081810360008301526107b381610777565b9050919050565b7f4e487b7100000000000000000000000000000000000000000000000000000000600052602260045260246000fd5b6000600282049050600182168061080157607f821691505b602082108103610814576108136107ba565b5b50919050565b60008190508160005260206000209050919050565b60006020601f8301049050919050565b600082821b905092915050565b60006008830261087c7fffffffffffffffffffffffffffffffffffffffffffffffffffffffffffffffff8261083f565b610886868361083f565b95508019841693508086168417925050509392505050565b6000819050919050565b60006108c36108be6108b9846105a2565b61089e565b6105a2565b9050919050565b6000819050919050565b6108dd836108a8565b6108f16108e9826108ca565b84845461084c565b825550505050565b600090565b6109066108f9565b6109118184846108d4565b505050565b5b818110156109355761092a6000826108fe565b600181019050610917565b5050565b601f82111561097a5761094b8161081a565b6109548461082f565b81016020851015610963578190505b61097761096f8561082f565b830182610916565b50505b505050565b600082821c905092915050565b600061099d6000198460080261097f565b1980831691505092915050565b60006109b6838361098c565b9150826002028217905092915050565b6109cf82610523565b67ffffffffffffffff8111156109e8576109e7610383565b5b6109f282546107e9565b6109fd828285610939565b600060209050601f831160018114610a305760008415610a1e578287015190505b610a2885826109aa565b865550610a90565b601f198416610a3e8661081a565b60005b82811015610a6657848901518255600182019150602085019450602081019050610a41565b86831015610a835784890151610a7f601f89168261098c565b8355505b6001600288020188555050505b50505050505056fea26469706673582212204bbb3f503cb4c8c82ae48ebf49059049da967c980c235c4c4ca570e53a73e3b764736f6c63430008130033",
  "linkReferences": {},
  "deployedLinkReferences": {}
}